:1000000000000220D5010000510200005302000050
:1000100055020000570200005902000082F2FDDF85
:100020000000000000000000000000005B02000073
:100030005D020000000000005F020000610200009D
:10004000775700007F570000875700008F57000048
:10005000975700009F570000A7570000AF570000B8
:10006000B7570000BF570000C7570000CF57000028
:10007000D7570000DF570000E7570000EF57000098
:10008000F7570000FF570000075800000F58000006
:10009000175800001F580000275800002F58000074
:1000A000375800003F580000475800004F580000E4
:1000B000575800005F580000675800006F58000054
:1000C000775800007F580000875800008F580000C4
:1000D000975800009F580000A7580000AF58000034
:1000E000B7580000BF580000C7580000CF580000A4
:1000F000D7580000DF580000E7580000EF58000014
:10010000F7580000FF580000075900000F59000081
:10011000175900005D0C00001F590000275900000E
:100120002F590000375900003F590000475900007F
:100130004F590000575900005F59000067590000EF
:100140006F590000775900007F590000875900005F
:100150008F590000975900009F590000A7590000CF
:10016000AF590000B7590000BF590000C75900003F
:10017000CF590000D7590000DF590000E7590000AF
:10018000EF590000F7590000FF590000075A00001E
:100190000F5A0000175A0000F077000000000020FE
:1001A000F8000000F07700000000FF1F00000000D2
:1001B000F0770000000000140000000000020020A2
:1001C000E80400000000FF1F000000000000001411
:1001D0000000000010B572B602F088FB0D4B07E07E
:1001E00003F10C049A685968186800F019F823465E
:1001F000094A9342F4D306E01C46596854F8080BA8
:1002000000F01DF82346054A9342F5D362B605F087
:100210002FFEFEE798010000BC010000D4010000A1
:10022000002393420AD210B404680C6004330430F3
:1002300004319342F8D35DF8044B704770470023B4
:1002400003E000220260043304308B42F9D370478C
:10025000FEE7FEE7FEE7FEE7FEE7FEE7FEE7FEE776
:10026000FEE7FEE7FFFFFFFFFFFFFFFFFFFFFFFFD0
:10027000FFFFFFFFFFFFFFFFFFFFFFFFFFFFFFFF8E
:10028000FFFFFFFFFFFFFFFFFFFFFFFFFFFFFFFF7E
:10029000FFFFFFFFFFFFFFFFFFFFFFFFFFFFFFFF6E
:1002A000FFFFFFFFFFFFFFFFFFFFFFFFFFFFFFFF5E
:1002B000FFFFFFFFFFFFFFFFFFFFFFFFFFFFFFFF4E
:1002C000FFFFFFFFFFFFFFFFFFFFFFFFFFFFFFFF3E
:1002D000FFFFFFFFFFFFFFFFFFFFFFFFFFFFFFFF2E
:1002E000FFFFFFFFFFFFFFFFFFFFFFFFFFFFFFFF1E
:1002F000FFFFFFFFFFFFFFFFFFFFFFFFFFFFFFFF0E
:10030000FFFFFFFFFFFFFFFFFFFFFFFFFFFFFFFFFD
:10031000FFFFFFFFFFFFFFFFFFFFFFFFFFFFFFFFED
:10032000FFFFFFFFFFFFFFFFFFFFFFFFFFFFFFFFDD
:10033000FFFFFFFFFFFFFFFFFFFFFFFFFFFFFFFFCD
:10034000FFFFFFFFFFFFFFFFFFFFFFFFFFFFFFFFBD
:10035000FFFFFFFFFFFFFFFFFFFFFFFFFFFFFFFFAD
:10036000FFFFFFFFFFFFFFFFFFFFFFFFFFFFFFFF9D
:10037000FFFFFFFFFFFFFFFFFFFFFFFFFFFFFFFF8D
:10038000FFFFFFFFFFFFFFFFFFFFFFFFFFFFFFFF7D
:10039000FFFFFFFFFFFFFFFFFFFFFFFFFFFFFFFF6D
:1003A000FFFFFFFFFFFFFFFFFFFFFFFFFFFFFFFF5D
:1003B000FFFFFFFFFFFFFFFFFFFFFFFFFFFFFFFF4D
:1003C000FFFFFFFFFFFFFFFFFFFFFFFFFFFFFFFF3D
:1003D000FFFFFFFFFFFFFFFFFFFFFFFFFFFFFFFF2D
:1003E000FFFFFFFFFFFFFFFFFFFFFFFFFFFFFFFF1D
:1003F000FFFFFFFFFFFFFFFFFFFFFFFFFFFFFFFF0D
:10040000FFFFFFFFFFFFFFFFFFFFFFFFFEFFFFFFFD
:1004100080B584B000AFF860B9603B601346FB71F3
:10042000FB79002B02D1074802F0BAFBF9793B684F
:10043000BA68F86803F051FC034618461037BD4609
:1004400080BD00BF1864000080B588B000AFF860C0
:10045000B9607A603B60FB68002B02D11C4802F057
:100460009FFBFB681A791B4B1A71FB681B68194AC2
:100470001360184B1B79042B20D0062B02D0012BC4
:1004800000D021E007F11003184602F029F8BB68FC
:100490003B61104B1B6807F110017A68184601F0A8
:1004A000A5FE0C4B1B680121184603F0D6FB094B37
:1004B0001B680121184603F0F0FB05E000F02CFF5B
:1004C0000246044B1A6000BF00BF2037BD4680BD06
:1004D000686400000004002080B586B000AFF860BA
:1004E000B9601346FB7100237B611C4B1B79042B05
:1004F00017D0062B01D0012B27D1FB79002B07D079
:10050000164B1B68BA68F968184605F0BCFB1FE07B
:10051000124B1B68BA68F968184602F011F8786146
:1005200016E0FB79002B07D00C4B1B68BA68F96802
:10053000184600F039FE0BE0084B1B68BA68F968F2
:10054000184600F05BFE786102E001237B6100BF8A
:100550007B6918461837BD4680BD00BF00040020E7
:1005600080B582B000AF786039607B68002B02D123
:10057000054802F015FB3968786803F0C6FB0346AE
:1005800018460837BD4680BD9064000080B586B02F
:1005900000AFF860B9607A603B600523FB7507F136
:1005A00016031A460621F86801F0AEF9BB7D012B4F
:1005B00004D0BB7D002B01D0FB7D50E0BB681B78D5
:1005C00003F01F03002B15D1274A0421F86801F01E
:1005D0009BF90346FB75244B1B8803F003039AB277
:1005E000214B1A80204B1A881F4B1A803B6802222D
:1005F0001A6030E0BB681B7803F01F03012B08D1A1
:100600000023FB75184B00221A803B6802221A60F7
:1006100021E0BB681B7803F01F03022B1BD1BB68D2
:100620009B88DBB23B7400237B8207F110031A46E0
:100630000521F86801F068F90346FB757B8A03F031
:1006400003039AB2084B1A80074B1A88064B1A808C
:100650003B6802221A607B68034A1A60FB7D1846D9
:100660001837BD4680BD00BFE006002080B586B0CB
:1006700000AFF860B9607A603B6007F117031A4673
:100680000621F86801F040F9FB7D012B04D0FB7DC9
:10069000002B01D005230AE03B6801221A607B6829
:1006A000054A1A600449F86800F04EFA03461846F5
:1006B0001837BD4680BD00BFE006002080B586B07B
:1006C00000AFF860B9607A603B600523FB7507F105
:1006D00016031A460621F86801F016F9BB7D002BB7
:1006E00001D0FB7D0EE03B6801221A607B68074A5F
:1006F0001A60BB689B88DBB2044A1946F86800F0B0
:100700004FFA034618461837BD4680BDE006002064
:1007100080B586B000AFF860B9607A603B600523B1
:10072000FB7507F116031A460621F86801F0ECF88C
:10073000BB7D002B01D0FB7D11E0BB689A880A4B82
:100740001A80094A0821F86801F0DEF80346FB75B3
:100750007B68054A1A603B6802221A60FB7D1846D6
:100760001837BD4680BD00BFE006002090B58FB0B1
:1007700002AFF860B9607A600023FB610023BB61BF
:10078000052387F82F30BB685B68B3F1FF3F02D1C8
:1007900097F82F30EBE007F124031946F86800F0D2
:1007A000FFFA07F117031A460621F86801F0ACF8C2
:1007B000BB681B7A002B00F09780BB685B68082B36
:1007C00003D1BB681B68002B02D197F82F30CEE015
:1007D000BB681B68BB627B6ABA6A52885A807B6AB4
:1007E000BA6A92889A807B6ABA6AD288DA807B6A0F
:1007F000BA6A52785A707B6ABA6A12781A707B6A3F
:100800001B7803F06003002B18D17B6A5B781A46D3
:10081000594B53F82230002B55D07B6A5B781A462F
:10082000554B53F82240796A07F1180307F11C026F
:10083000F868A047034687F82F3044E07B6ADB88DE
:10084000002B2FD07B6A1B785BB2002B2ADB7B6AE4
:10085000DB88002B15D07B6A1B7803F02003002B6C
:100860000FD07B6ADB88BB61796A07F1200307F14F
:100870001802F86800F0AAFA034687F82F30002320
:10088000BB6197F82F30002B1DD13A6A7B6ADB8859
:100890000021F86804F072FE034687F82F3097F8BD
:1008A0002F3064E07B6A1B7803F02003002B0AD012
:1008B000796A07F11C0307F11802F86800F0A2FA40
:1008C000034687F82F30796A97F82F2007F118032D
:1008D000019307F11C0300930023F86803F05DFB0C
:1008E000034687F82F3040E0FB7D032B10D17B6A55
:1008F0005B781A46204B53F82240796A07F11803B7
:1009000007F11C02F868A047034687F82F302CE057
:10091000BB685B68002B28D07B6ADB88002B24D067
:100920007B6A1B785BB2002B1FDB7B6A1B7803F0B2
:100930002003002B09D0796ABB681A1DBB68F868D0
:1009400000F060FA034687F82F30796A97F82F2075
:1009500007F11803019307F11C0300930123F868C2
:1009600003F01BFB034687F82F3097F82F3018460B
:100970003437BD4690BD00BF1065000080B588B01B
:1009800000AF78601A4BFB607B683B6101233B77CB
:100990000023FB768023BB7640233B8307F10C02C8
:1009A00007F118031946786804F0FEFD0346FB774B
:1009B000FB7F002B01D0FB7F15E00023BB7607F106
:1009C0000C0207F118031946786804F0EDFD0346A0
:1009D000FB77FB7F002B05D08021786804F043FE75
:1009E000FB7F00E0002318462037BD4680BD00BFD6
:1009F0006D07000080B487B000AFF860B9607A601E
:100A00003B60BB685B881B0A9BB23B75BB685B881D
:100A1000FB740023FB75BB685B78062B01D00523B4
:100A200069E03B7D022B5BD0032B02D0012B50D021
:100A30005DE0FB7C002B08D1324B1A683B681A60E2
:100A4000304B5A687B681A6054E00023BB7503235F
:100A50007B7515E0BB6899882A4B9868BA7D134668
:100A60005B0013449B0003441B89994205D1FB7C26
:100A7000022B09D8FB7C7B7506E0BB7D0133BB757F
:100A8000BB7D002BE6D000E000BF7B7D032B01D1B6
:100A90000023BB751B4B9968BA7D13465B0013445A
:100AA0009B000B441A687B7D9B0013441A683B68CB
:100AB0001A60144B9968BA7D13465B0013449B007F
:100AC0000B445A687B7D9B0013441A687B681A604C
:100AD00010E03B680C4A1A607B6812221A6009E039
:100AE0003B680A4A1A607B6843221A6002E00523C9
:100AF000FB7500BFFB7D18461C37BD465DF8047BC7
:100B0000704700BFD4000020000000201400002027
:100B100080B582B000AF78600B46FB70FB78002B8D
:100B200001D1012309E0FA78064B1A70FB1C1A4622
:100B30000921786800F094FA034618460837BD4644
:100B400080BD00BFE206002080B483B000AF7860B3
:100B50003960054B1A783B681A70002318460C3729
:100B6000BD465DF8047B7047E206002080B582B088
:100B700000AF78600B46FB701346BB70FB781946DC
:100B8000064ABB785354FB1C1A460A21786800F0C9
:100B900067FA034618460837BD4680BD08040020A2
:100BA00080B485B000AFF8600B467A60FB72FB7AC8
:100BB000054AD25C7B681A70002318461437BD467C
:100BC0005DF8047B704700BF0804002080B483B048
:100BD00000AF0346FB7197F90730002B0BDBFB7965
:100BE00003F01F02074997F907305B09012000FA5B
:100BF00002F241F8232000BF0C37BD465DF8047BAC
:100C0000704700BF00E100E080B483B000AF03464E
:100C10003960FB7197F90730002B0ADB3B68DAB2C9
:100C20000C4997F907301201D2B20B4483F8002324
:100C30000AE03B68DAB20849FB7903F00F03043B92
:100C40001201D2B20B441A7600BF0C37BD465DF8D4
:100C5000047B704700E100E000ED00E080B500AFEC
:100C6000044B1B68184604F0A3F9BFF34F8F00BF75
:100C700080BD00BF0C04002080B500AF01F054FE21
:100C800003494FF4E02001F00DF800BF80BD00BF24
:100C9000006CDC0280B586B000AFF860B9607A60A5
:100CA0000123FB75BB685B68002B11D0BB685B68D8
:100CB000214A1268B3FBF2F102FB01F29B1A002BEE
:100CC00006D1002300220221F86804F03EFC2DE04A
:100CD0001A4B1B79DBB2012B14D1184B9B79DBB279
:100CE000012B0FD1BB681B68002B07D1BB681B68A9
:100CF000002B1AD1BB685B68002B16D1104B012268
:100D00001A7012E00E4B1B78DBB2002B0ED10B4B8E
:100D10001B79DBB2012B09D1084B9B79DBB2002B8D
:100D200004D1074B01221A7000E000BFFB7D18467A
:100D30001837BD4680BD00BFEC0000200C04002029
:100D4000E306002080B487B000AFF860B9607A6035
:100D50000123FB75BB685B68B3F1FF3F04D10E4B09
:100D60004FF0FF321A600FE00C4B1B79DBB2012B06
:100D70000AD10A4B9B79DBB2012B05D1BB685B68BA
:100D8000054A1360044B1B68FB7D18461C37BD46A3
:100D90005DF8047B704700BF740400200C04002041
:100DA00080B483B000AF786039603B68002B01D11C
:100DB000042303E03B68044A1A60002318460C37FA
:100DC000BD465DF8047B70477804002080B485B090
:100DD00000AFF860B9607A603B603B68002B03D0DD
:100DE0007B681B68082B01D9052303E03B68044A94
:100DF0001A60002318461437BD465DF8047B70471F
:100E00008004002080B588B000AFF860B9607A60D7
:100E10003B600523FB778D4BBB61BB689B88002B38
:100E200001D0FB7F0DE1BB685B78232B00F20581CD
:100E300001A252F823F000BF3B1000003B1000005D
:100E4000C90E0000ED0E00003B1000003B1000003A
:100E50003B1000003B1000003B1000003B10000066
:100E60003B1000003B1000003B1000003B10000056
:100E70003B1000003B1000003B1000003B10000046
:100E80003B1000003B1000003B1000003B10000036
:100E90003B1000003B1000003B1000003B10000026
:100EA0003B1000003B1000003B1000003B10000016
:100EB0003B1000003B1000002F0F00001D0F000032
:100EC0003B0F00003B100000BB685B88012B03D187
:100ED0003B685F4A1A6006E0BB685B88022B02D160
:100EE0003B685C4A1A600023FB77A9E0BB685B881B
:100EF000012B06D13B68564A1A607B6802221A60B1
:100F000009E0BB685B88022B05D13B68514A1A6037
:100F10007B6802221A600023FB7791E03B684E4A0F
:100F20001A607B6807221A600023FB7788E03B6821
:100F3000494A1A600023FB7782E0BB685B88DAB21B
:100F4000BB699A73BB699B7B03F00203002B07D03C
:100F5000BB691B8A43F002039AB2BB691A8206E09E
:100F6000BB691B8A23F002039AB2BB691A82BB6970
:100F70009B7B03F00103002B07D0BB691B8A43F066
:100F800001039AB2BB691A8206E0BB691B8A23F08F
:100F900001039AB2BB691A82BB699B7B03F0010310
:100FA000002B14BF01230023DAB2BB699A72BB691C
:100FB000A1221A70BB6920225A70BB6900229A7064
:100FC000BB690022DA70BB6900221A71BB6900227A
:100FD0005A71BB6902229A71BB690022DA71BB683F
:100FE0009B88DAB2BB691A71BB6908337B61BB6944
:100FF0001A8A7B691A800A233B61BA693B6901211D
:10100000F86804F0A2FA0346FB77BB699B7B03F008
:101010000103002B08D0114B1B79DBB2012B0ED141
:101020000E4B01229A710AE00C4B1B79DBB2012BAB
:1010300005D10A4B00229A7101E000BF00E000BF19
:10104000FB7F18462037BD4680BD00BF200400202E
:10105000180400201C040020E40000200C040020E0
:1010600080B58CB000AFF860B9607A60012387F872
:101070002F307B68BB62BB68012B02D0092B09D0E3
:1010800082E0444B1B681846FFF778FC414B002276
:101090001A7179E07B68002B75D03E4B01221A71E2
:1010A000BB6A1A783B4BDA71BB6A1B78012B6AD199
:1010B000394B7B61FB68BB61002387F82430032335
:1010C00087F82330812387F82230324B5B79022B5B
:1010D00002D110233B8401E010233B842D4B1B687D
:1010E00007F1140207F12001184604F05DFA2B4BBA
:1010F0007B61FB68BB61002387F82430022387F8FB
:101100002330822387F82230224B5B79022B03D1D4
:101110004FF400733B8401E040233B841D4B1B686C
:1011200007F1140207F12001184604F03DFA1C4BA8
:101130007B61FB68BB61002387F82430022387F8BA
:101140002330032387F82230124B5B79022B03D123
:101150004FF400733B8401E040233B840D4B1B683C
:1011600007F1140207F12001184604F01DFA094B9B
:101170005B79022B04D10B4B4FF400721A6002E032
:10118000084B40221A6000BF97F82F3018463037BE
:10119000BD4680BD0C040020DF400000950C00001F
:1011A000450D0000EC00002080B584B000AFF86071
:1011B000B9607A6000E000BF0E4B1B79DBB2012BF7
:1011C000F9D10C4B9B79DBB2012BF4D17B68BA6867
:1011D0000221F86804F0B9F900E000BF064B1B7863
:1011E000DBB2002BF9D0044B00221A7000BF10377D
:1011F000BD4680BD0C040020E306002080B588B009
:1012000000AFF860B9607A600023BB610023FB6126
:1012100000237B617B68002B03D1394801F0C0FCBF
:1012200000BF384B1B79DBB2012BF9D1354B9B79D1
:10123000DBB2012BF4D1344B1B68002B10D1334BA4
:101240001B68334A0321F86804F098F90346002B21
:1012500001D001234FE02F4B00221A7000E000BFA5
:10126000294B1B68002BFAD0274B1B68B3F1FF3FBB
:101270000FD100E000BF234B1B79DBB2012BF9D16A
:10128000204B9B79DBB2012BF4D11F4B00221A605B
:101290002DE01D4B1B687A689A4201D27B6801E001
:1012A000194B1B687B61BA68FB69D018194B1B7816
:1012B000DBB21A46164B13447A69194604F0E0FD76
:1012C0007A687B69D31A7B600F4B1A687B69D31AE3
:1012D0000D4A1360FA697B691344FB617B69DAB2DA
:1012E0000C4B1B78DBB21344DAB20A4B1A707B68E2
:1012F000002BA0D1BB6918462037BD4680BD00BF7A
:10130000446500000C04002074040020EC00002060
:1013100034040020E406002080B582B000AF002332
:101320007B60FFF7A9FC0021124802F0A6FE124BD9
:1013300000225A71104B00221A710F4B00221A60C2
:101340000D4A0E49002004F01EF80346002B02D07F
:1013500000237B6009E0084B1B687B6002F0A9FE5C
:10136000054B1B68184604F0C1F87B68184608371F
:10137000BD4680BD00D000400C040020611000007C
:1013800080B586B000AFF8607B600B46FB721346F9
:10139000BB72FB7A5A00BB7A13437B6107F11003DF
:1013A000184604F076FBFA687B691B01134403F1CD
:1013B0002802537943F040035371FB685B6823F4C0
:1013C000FF7323F00103FA7A520102F4F0721A4318
:1013D000BB7A1B0103F010031A43F9687B691B01F8
:1013E0000B4428335B79C3F30013DBB2DB001343F8
:1013F00004331A467B6813603B6A1A04204B13407F
:10140000F9687A6912010A4428325279C2F3C0029B
:10141000D2B292011A43FB685B6823F4FF7323F096
:101420000103F97A490101F4F0711943BB7A1B01F8
:1014300003F010031943F8687B691B010344283348
:101440005B79C3F30013DBB2DB000B43194642F0B8
:1014500088030B603B69184604F029FBFB689B6816
:1014600093F89430DAB2FB689B6822F02002D2B283
:1014700083F89420002318461837BD4680BD00BF6E
:101480000000FF0380B586B000AF0346B9607A6004
:10149000FB732D4B3B61FB7B002B02D1FB7B002BB5
:1014A00001D006234CE0FB7BA42202FB03F3274A76
:1014B00013447B617B69FA7B83F8A220FB7B9B0052
:1014C00007F11802134453F8083C1A467B699A60E6
:1014D000FB7B9B011E4A1A447B69DA617B699B682E
:1014E000FF2283F8802000220121786900F034F87F
:1014F000FB7B5B02174A1A447B695A607B695B6815
:101500001A0A7B699B68D2B283F89C207B695B686E
:101510001A0C7B699B68D2B283F8B0207B695B6848
:101520001A0E7B699B68D2B283F8B420786902F006
:1015300041FE7B687A691A607B69BA681A60002389
:1015400018461837BD4680BD00200740880400209B
:101550002C0500200002002080B58AB000AFF860A2
:101560000B467A60FB72FB683B62012387F82730E9
:10157000FB68002B01D103233EE1FB7A122B00F222
:10158000288101A252F823F0D51500003B16000077
:101590007F16000097160000B7160000D71600004F
:1015A000F71600000F17000057170000D3170000B0
:1015B000D3170000D3170000D3170000D317000083
:1015C00075170000BB170000D3170000D3170000E9
:1015D000D31700003B6A9B68002283F800213B6A16
:1015E0009B681B7FDBB203F00403002B09D03B6A2E
:1015F0009B681B7FDAB23B6A9B6862F07F02D2B2C3
:101600001A773B6A9B6893F80831DAB23B6A9B68A9
:1016100042F01002D2B283F808213B6A9B6893F82B
:101620009430DAB23B6A9B6842F00102D2B283F88E
:101630009420002387F82730DCE03B6A9B681B7FFF
:10164000DBB203F00403002B09D03B6A9B681B7FCD
:10165000DAB23B6A9B6802F07F02D2B21A773B6A29
:101660009B6893F80831DAB23B6A9B6822F010025B
:10167000D2B283F80821002387F82730BAE07B68CC
:10168000002B00F0A8807968386A02F03FFE03461C
:1016900087F827309FE07B68002B00F09E807B68F6
:1016A000FB61FB691B781946386A02F0C5FE0346E8
:1016B00087F8273091E07B68002B00F090807B68F2
:1016C000FB61FB691B781946386A02F0E3FE0346AA
:1016D00087F8273083E07B68002B00F082807B68EE
:1016E000FB61FB691B781946386A02F02FFF03463D
:1016F00087F8273075E07B68002B74D07B687B61AE
:101700007B6901221A80002387F827306BE07B6811
:10171000002B6AD07B68BB61BB691B7803F00F03A9
:10172000032B62D8BB691B785B0003F01E03BA6908
:101730001278D209D2B213433A6A1B0113442833F8
:101740005B79C3F38003DBB29AB2BB695A80002392
:1017500087F8273049E07B68002B48D07B68FB6125
:101760003B6A9B68FA69127883F89820002387F80F
:1017700027303CE0002387F8263013E097F8263026
:1017800063F07F03DBB21946386A02F055FE97F822
:1017900026301946386A02F04FFE97F8263001339A
:1017A00087F8263097F82630032BE7D9386A02F0FD
:1017B00001FD002387F827301CE07B68002B18D040
:1017C0007B68FB61FB6900221A70002387F82730D1
:1017D0000FE000BF0EE000BF0CE000BF0AE000BF5A
:1017E00008E000BF06E000BF04E000BF02E000BF69
:1017F00000E000BF97F8273018462837BD4680BD67
:1018000080B584B000AF03463960FB7107F108036F
:10181000184604F03EF90023FB601EE02B49FA68ED
:101820001346DB009B1A1B010B441B68002B11D0D5
:101830002649FA681346DB009B1A1B010B446D33E3
:101840001B78FA799A4205D1BB68184604F02FF943
:10185000012336E0FB680133FB60FB68002BDDD021
:101860000023FB6025E01949FA681346DB009B1A48
:101870001B010B441B68002B18D11449FA6813464E
:10188000DB009B1A1B010B446D33FA791A70FA685E
:101890001346DB009B1A1B010C4A1A443B681A6072
:1018A000BB68184604F003F900230AE0FB68013323
:1018B000FB60FB68002BD6D0BB68184604F0F7F835
:1018C000022318461037BD4680BD00BF6C050020BE
:1018D00080B485B000AF03463960FB710623FB730B
:1018E000FB790033012B05D83B68064A1A600023B8
:1018F000FB7300E000BFFB7B18461437BD465DF864
:10190000047B70477465000080B586B000AFF86056
:101910000B467A60FB720123FB757B68002B01D1BB
:10192000042353E0FB7A023B062B4DD801A252F868
:1019300023F000BF5119000061190000991900003F
:10194000A91900007119000085190000B9190000DB
:101950007A680F21F86803F005FC0346FB7534E054
:101960007A681021F86803F0FDFB0346FB752CE054
:101970007B683B610023FB75FB6893F86E203B6935
:101980001A7022E07B683B610023FB75FB6893F8CB
:101990006C203B691A7018E07A680621F86803F039
:1019A000E1FB0346FB7510E07A680721F86803F055
:1019B000D9FB0346FB7508E07A680921F86803F053
:1019C000D1FB0346FB7500E000BFFB7D18461837CE
:1019D000BD4680BD80B586B000AFF8600B467A602A
:1019E000FB720123FB75FB7A033B0B2B6BD801A227
:1019F00052F823F0251A0000C71A0000C71A000089
:101A0000351A00004B1A0000C71A0000C71A000060
:101A1000A71A0000B71A0000871A0000C71A0000B2
:101A2000971A00007A681121F86803F09BFB0346BF
:101A3000FB754DE07B68002B47D00023FB757B686E
:101A40001A78FB6883F86E203FE0FB6893F86E30ED
:101A5000032B0ED07B68002B39D00023FB757B68ED
:101A60001A78FB6883F86C20FB68032283F86E20E9
:101A70002DE0FB686C331A460821F86803F072FB0E
:101A80000346FB7523E07A680A21F86803F06AFBD5
:101A90000346FB751CE07A680B21F86803F062FBD3
:101AA0000346FB7514E07A680C21F86803F05AFBD2
:101AB0000346FB750CE07A680D21F86803F052FBD1
:101AC0000346FB7504E000BF02E000BF00E000BF7A
:101AD000FB7D18461837BD4680BD00BF90B585B068
:101AE00000AF78607B684FF00004184A02FB04F1F5
:101AF000002202FB03F20A441449A3FB010153181C
:101B000019464FF47A724FF0000304F085FB034648
:101B10000C46194622464FF000034FF000040B0913
:101B200043EA02731409C7E9023400E000BFD7E9B1
:101B3000023413F1FF3144F1FF32C7E902122343AB
:101B4000F4D100BF1437BD4690BD00BF000E27077B
:101B500080B500AF04F07FF904F033F904F03EF9EA
:101B600000F0AEFD124801F0C3FF0122052111482B
:101B700003F055FF6420FFF7B1FF002205210D4857
:101B800003F04DFF4FF4C870FFF7A8FF0A4B1B6826
:101B90000133094A1360084B1B681946074801F0D6
:101BA000A7FF054B1B681946054801F0A1FFDCE7BC
:101BB0008C65000080F00F40DC0500209C65000073
:101BC000A865000080B483B000AF7860084B1B6844
:101BD00023F440227B689B0403F44023044913430D
:101BE0000B6000BF0C37BD465DF8047B704700BF3B
:101BF0000070044080B483B000AF78600B4B03F5F5
:101C0000805304331B6823F440327B681B0403F4C5
:101C1000403306491A4301F5805304331A6000BF6C
:101C20000C37BD465DF8047B704700BF0070044070
:101C300080B485B000AF78607B6849F69702934224
:101C400002D80023FB7308E07B68074A934202D85E
:101C50000123FB7301E00223FB73FB7B184614375F
:101C6000BD465DF8047B704700127A0080B582B0F3
:101C700000AF78600A497B685A6801F582530433E3
:101C80001A607B681B781846FFF7B4FF7B685B78A7
:101C90001846FFF797FF00BF0837BD4680BD00BF5D
:101CA0000070044080B584B000AF786039600123D3
:101CB000FB73354803F020FF7B68002B0CD1334BBE
:101CC00003F5805304331B68304923F4802201F567
:101CD000805304331A603DE03B682D4A93421AD08A
:101CE0002B4A934203D82B4A93421BD021E02A4A25
:101CF000934209D0294A93421BD1244B03F58253C6
:101D0000083309221A6017E0204B03F58253083389
:101D100002221A6010E01D4B03F58253083305229E
:101D20001A6009E0194B03F58253083300221A6048
:101D300002E00023FB7300BF144B03F58053043310
:101D40001B6823F4E02211497B681A4301F5805394
:101D500004331A600C4803F0B5FE7B68B3F5E02F3E
:101D60000DD10F4B032283F844210D4B93F84031E2
:101D7000DBB20B4A63F07F03DBB282F84031FB7BBE
:101D800018461037BD4680BD120034100070044064
:101D900000A24A04006CDC0200D8B805000E270738
:101DA0000020074080B485B000AF0346FB71174B9D
:101DB0001B7BDBB203F00302FB799A4202D00123C2
:101DC000FB7301E00023FB73104B1B7BDBB223F0A2
:101DD0000303DAB2FB7903F00303DBB20B491343CD
:101DE000DBB20B73FB7B002B09D040F2DC53BB60F2
:101DF00000E000BFBB685A1EBA60002BF9D1002377
:101E000018461437BD465DF8047B70470040064015
:101E100080B584B000AF78607B68002B02D11B488E
:101E200000F0BEFE0023FB737B685B7803F01F03AA
:101E3000DAB2FB7B1343FB73154AFB7B1371144B24
:101E40005B79DBB223F01F03DAB27B689B7803F087
:101E50001F03DBB20E491343DBB24B710C4B1B79F2
:101E6000DAB27B681B781343DBB2094A43F04003C4
:101E7000DBB2137100BF064B9B79DBB203F040036A
:101E8000002BF8D000BF1037BD4680BD986600001B
:101E90000040064080B584B000AF78607B681B6866
:101EA0001846FFF7C5FE0346FB737B681B7919468E
:101EB000194803F057FE7B6806331946164803F0AD
:101EC00037FE164B5B78DBB223F03C03DAB2FB7BC8
:101ED0001B01DBB203F03003DBB21343DAB27B68E1
:101EE0005B790E491343DBB24B707B685B79002B47
:101EF0000DD0094B1B78DBB25BB2002B07DA00BFB9
:101F0000064B9B79DBB203F00203002BF8D000BF35
:101F10001037BD4680BD00BF00500640004006405F
:101F200080B582B000AF03463960FB713B68002B7F
:101F300002D1234800F034FE224B5B78DBB2214A09
:101F400023F00203DBB253701E4B1B78DBB203F0AD
:101F50003B03DBB21B4A63F07F03DBB2137000BFAD
:101F6000184B9B79DBB203F01C03082BF8D1154BFF
:101F70005B79DBB2134A23F04003DBB2537100BF3D
:101F8000104B9B79DBB203F02003002BF8D13868AB
:101F9000FFF73EFF0B4B5B79DBB20A4A43F040038D
:101FA000DBB2537100BF074B9B79DBB203F0200318
:101FB000002BF8D0002318460837BD4680BD00BF6F
:101FC000BC6600000040064080B582B000AF03460A
:101FD0003A60FB710B46BB713B68002B02D1114884
:101FE00000F0DEFDFB791846FFF7DCFEBB793968AF
:101FF0001846FFF795FF0C4B1B78DBB20A4A03F03B
:102000003F03DBB2137000BF074B9B79DBB29B0829
:1020100003F00303032BF7D1002318460837BD460E
:1020200080BD00BFE46600000040064080B582B07D
:1020300000AF78603960786803F0AEFD0346002B8E
:1020400005D0084B1B6839687868984704E0064B50
:102050001B68396878689847BFF34F8F00BF08370F
:10206000BD4680BDF4050020F805002080B500AF16
:10207000074B1B68002B02D1064800F091FD044B72
:102080001B6819460448FFF7D1FF00BF80BD00BFA1
:10209000E8050020886B000000C0024080B500AF5A
:1020A000074B5B68002B02D1064800F079FD044B1A
:1020B0005B6819460448FFF7B9FF00BF80BD00BF49
:1020C000E8050020B86B000000D0024080B500AFEA
:1020D000074B9B68002B02D1064800F061FD044BC2
:1020E0009B6819460448FFF7A1FF00BF80BD00BFF1
:1020F000E8050020E86B000000C00A4080B584B00D
:1021000000AFF860B9607A607B68002B02D1134899
:1021100000F046FD7B681B78002B0AD1FB685A69EA
:102120000121BB6801FA03F3DB431A40FB685A61E3
:102130000FE07B685B781A46B968F86803F055FDD4
:10214000FB685A690121BB6801FA03F31A43FB6873
:102150005A6100BF1037BD4680BD00BF586C0000FB
:1021600080B500AF084B1B68002B02D1074800F078
:1021700017FD074B1B68044A12681146054898472B
:10218000BFF34F8F00BF80BDFC050020F071000041
:102190000006002000100B4080B584B000AF7860CE
:1021A0000623BB600023FB6009E00E4AFB6852F87F
:1021B00023307A689A4207D0FB680133FB60FA68E3
:1021C000BB689A42F1D300E000BFFA68BB689A424C
:1021D00002D3054800F0E4FCFB6818461037BD4602
:1021E00080BD00BF207200005072000080B588B032
:1021F00000AFF860B9607A60BB68002B02D1554827
:1022000000F0CEFCBB681B68002B02D1524800F0E6
:10221000C7FCFB68514A934220D0FB68504A934266
:102220001AD0FB684F4A934214D0FB684E4A93423F
:102230000ED0FB684D4A934208D0FB684C4A93424B
:1022400001D101230BE04FF0FF3308E0012306E04A
:10225000012304E0012302E0082300E00823BA6818
:102260009279934202DA434800F09AFCFB683B4AB9
:10227000934220D0FB683A4A93421AD0FB68394A0D
:10228000934214D0FB68384A93420ED0FB68374A19
:10229000934208D0FB68364A934201D101230BE0F8
:1022A0004FF0FF3308E0012306E0012304E001239F
:1022B00002E0082300E00823BA68D279934202DAE8
:1022C0002D4800F06DFC0023FB8300237B77002367
:1022D000BB61BB681B681B017A68B2FBF3F3FB832D
:1022E000FB8B002B01D10123FB8300237B617B68E7
:1022F0005A00BB681B68B2FBF3F39AB2FB8B5B011D
:102300009BB2D31A7B827B685B00FA8B51017A8A7D
:102310000A44B3FBF2F37B61BB681B687A699A429B
:1023200004D9BB681B687A69D31A03E0BB681A68D2
:102330007B69D31ABB61BB681B68104AA2FB0323ED
:102340005A0913465B001344BA699A4218D940F2FD
:10235000F533BFE0D0720000F472000000A0064028
:1023600000B0064000C0064000D0064000A00E406D
:1023700000B00E4028730000847300001F85EB51ED
:10238000F868FFF709FF0246544B53F8223018460D
:1023900003F03CFCFB68DB78DBB223F00C03DAB221
:1023A000FB68DA70FB681B78DBB223F01F03DAB23C
:1023B000FB8B1B0A9BB2DBB21343DAB2FB681A70C9
:1023C000FB8BDAB2FB685A70FB689B7ADBB223F0B6
:1023D0001F03DAB27B8ADBB203F01F03DBB21343C5
:1023E000DAB2FB689A72FB689B78DBB223F01703C2
:1023F0007B77BB689B7A9B00DBB203F00403DAB205
:102400007B7F13437B77BB681B79002B07D0BB68AE
:102410001A797B7F1343DBB243F010037B77FB68B1
:102420007A7F9A70FB681B78DBB223F02003DAB264
:10243000BB685B795B01DBB203F02003DBB21343C3
:10244000DAB2FB681A70BB689A79FB68DA74BB6809
:10245000DA79FB685A75FB681B7CDBB263F07703A3
:10246000DAB2FB681A74FB685B7CDBB263F03F0393
:10247000DAB2FB685A74BB681B7A002B07D0FB6882
:102480005B7BDBB243F00803DAB2FB685A73BB68CC
:102490005B7A002B07D0FB685B7BDBB243F0010368
:1024A000DAB2FB685A73FB68DB787B77BB68DB7A50
:1024B000002B03D07B7F43F008037B77BB681B7B3B
:1024C000002B03D07B7F43F004037B77FB687A7F8C
:1024D000DA70002318462037BD4680BD38720000F0
:1024E00080B582B000AF78607B68002B02D11348C2
:1024F00000F056FB7B684FF4E1321A607B680022E3
:102500001A717B6800225A717B6800229A717B687D
:102510000122DA717B6800221A727B6800225A72EB
:102520007B6800229A727B680022DA727B68002244
:102530001A7300BF0837BD4680BD00BFE0730000BE
:1025400080B586B000AFF860B9607A60BB68002BD8
:1025500032D11E4800F024FBF86803F071FB78616B
:102560007B6903F00803002B02D040F2F13329E02D
:102570007B6903F00403002B02D040F2F23321E028
:102580007B6903F00203002B02D040F2F33319E021
:102590007B6903F00103002B02D04FF47D7311E03F
:1025A000FB689B7DDBB2002BD6D0BB685A1CBA609F
:1025B000FA68D279D2B21A707B685A1E7A60002B00
:1025C000EED1002318461837BD4680BD5474000074
:1025D00080B500AF054B1B68054A126811460548D7
:1025E0009847BFF34F8F00BF80BD00BF1C0600207F
:1025F0000406002000A0064080B500AF054B1B6814
:10260000054A5268114605489847BFF34F8F00BFEF
:1026100080BD00BF1C0600200406002000B006405C
:1026200080B500AF054B1B68054A92681146054806
:102630009847BFF34F8F00BF80BD00BF1C0600202E
:102640000406002000C0064080B500AF054B1B68A3
:10265000054AD268114605489847BFF34F8F00BF1F
:1026600080BD00BF1C0600200406002000D00640EC
:1026700080B500AF054B1B68054A12691146054835
:102680009847BFF34F8F00BF80BD00BF1C060020DE
:102690000406002000A00E4080B500AF054B1B686B
:1026A000054A5269114605489847BFF34F8F00BF4E
:1026B00080BD00BF1C0600200406002000B00E40B4
:1026C00080B500AF044B04224FF4E1310348FDF71D
:1026D0009FFE00BF80BD00BF006CDC0200200740F1
:1026E00080B483B000AF78600B4B03F580530433A4
:1026F0001B6823F010027B681B0103F010030649DE
:102700001A4301F5805304331A6000BF0C37BD46ED
:102710005DF8047B704700BF0070044080B400AFD8
:10272000054B03F5825304334FF092721A6000BFD9
:10273000BD465DF8047B70470070044080B483B0F0
:1027400000AF7860044A7B68136000BF0C37BD4659
:102750005DF8047B704700BFE005002080B483B0C3
:1027600000AF7860044A7B68136000BF0C37BD4639
:102770005DF8047B704700BFE405002080B582B09F
:1027800000AF78600B46FB701B4803F0CBFA1B4B85
:102790001B6903F48073002B09D17968174803F093
:1027A000F7FA164B1B69154A43F480731361FB78E3
:1027B000002B06D0114B1B69104A23F400731361E0
:1027C00005E00E4B1B690D4A43F4007313614FF48F
:1027D0000040FFF7C3FF094B5B6903F00103002BC7
:1027E00003D0064B054A1B681360034803F0B4FA94
:1027F00000BF0837BD4680BD1D003C1000D003401F
:1028000080B483B000AF0346FB710B4B1B78DBB287
:1028100023F03803DAB2FB79DB00DBB203F03803D4
:10282000DBB205491343DBB20B7000BF0C37BD466A
:102830005DF8047B704700BF0040064080B500AFE4
:10284000FFF76CFF01214FF4A050FFF797FF1048EE
:10285000FFF720FB0F4B1846FFF770FF02231846C7
:10286000FFF7CEFF00230C4A00211846FFF7ACFB10
:102870000A48FFF7FBF90A4B0A4A1A600020FFF7E3
:102880002FFF09494FF4E020FFF70CFA00BF80BD8D
:10289000787700000024F4006C7700007077000067
:1028A000F0000020000E2707006CDC0280B582B02B
:1028B00000AF0B4803F098FA01233B7100237B71B2
:1028C0003B1D1A4605210748FFF718FC0122052188
:1028D000054803F0A3FA00BF0837BD4680BD00BF1E
:1028E0000B00381080F00F4000B0044080B500AFFE
:1028F0000B4BD3F888300A4A43F47003C2F888308F
:10290000084B4CF22052DA81064B4DF62812DA8140
:10291000044B4FF4E9721A8003F0A3FA00BF80BDA4
:1029200000ED00E00020054080B483B000AF964B7E
:102930001B78DBB203F0C003002B40F0D280924B37
:102940005B79DBB203F04003002B40F0AD808E4B8F
:102950001B78DBB203F00403002B4ED18A4B1B7BA8
:10296000DBB203F00303002B02D0012B03D006E0FF
:10297000864B7B6006E04FF400437B6002E0844BB3
:102980007B6000BF804B5B78DBB203F03003002B31
:1029900023D07D4B1B7BDBB203F00303012B1CD048
:1029A000794B1B78DBB203F03803302B05D0382B82
:1029B00007D14FF4C0637B800EE04FF4A0637B80AF
:1029C0000AE0714B1B78DBB2DB0803F0070320221F
:1029D00002FA03F37B8000BF09E06B4B1B78DBB28C
:1029E000DB0803F00703012202FA03F37B807B88F4
:1029F0007A68B2FBF3F37B6002E04FF400437B6044
:102A0000614BDB78DBB203F0E003602B29D0602B55
:102A100006D8202B17D0402B1CD0002B0CD09DE0CB
:102A2000A02B2CD0A02B02D8802B21D096E0C02B3D
:102A30002CD0E02B31D091E07A6813469B001344F0
:102A4000DB017B608AE07A6813469B0013441B021B
:102A50007B6083E07A6813461B019B1ADB017B6075
:102A60007CE07A6813469B0013445B027B6075E050
:102A70007B684FF4377202FB03F37B606EE07B6888
:102A80004FF4B76202FB03F37B6067E07B6840F6BC
:102A9000950202FB03F37B6060E07B6840F67132D5
:102AA00002FB03F37B6059E0374B1B79DBB29BB22F
:102AB00003F01F039BB201337B807B88334AB2FB58
:102AC000F3F37B60304B5B79DBB29BB203F01F0307
:102AD0009BB218337B807A887B6802FB03F37B60B0
:102AE0003CE0294B1B78DBB203F0C003402B1AD12A
:102AF000254B5B78DBB203F00103002B03D14FF4CD
:102B000000437B602AE0204B1B7ADBB25B0803F0BA
:102B10000703012202FA03F37B807B881D4AB2FB84
:102B2000F3F37B601AE0184B1B78DBB203F0C003B1
:102B3000802B22D1144B1B7BDBB203F00303002B51
:102B400002D0012B03D006E0104B7B6006E04FF46F
:102B500000437B6002E00E4B7B6000BF0E4B03F531
:102B6000825304331B681B0F03F00F0301337A6891
:102B7000B2FBF3F3094A136000E000BF0C37BD4617
:102B80005DF8047B704700BF0040064080F0FA0209
:102B9000006CDC0200093D0000700440F0000020E1
:102BA00010B50F4904460F4803F06FFA0C49204650
:102BB00003F06BFA0C49D1F88030013B002BC1F8CF
:102BC000803008DB8B6F5A1C8A670A221A70BDE8B6
:102BD000104003F054B978310A2003F075F9F6E794
:102BE0009806002084770000200600202DE9F0419F
:102BF000D5685769EB0280460E46144605D538461F
:102C000003F0FBFB45F01005A061124B2B408BB18C
:102C1000A169384603F0FAFB002806DAE36843F0BE
:102C20008003E3604FF0FF3011E025F4003525F01C
:102C30001005E56032464146384600F0EFFF20F0CF
:102C40000043F61AA3691E44A6610028E6D1BDE838
:102C5000F08100BF10000200F8B5304F3C6800283A
:102C600051D10020F8BD2368B3F1805F39D1D4E998
:102C7000013151B10A68B2F1805F06D1DA1C4B68AC
:102C80001A448B686260A360F1E7AB4207DB9E45A4
:102C900005DB20464FF0005340F80C3BE2E763456C
:102CA00011D920464FF00052656040F80C2B5B1B99
:102CB00000EB8502A260033B4FF0805440F82540B2
:102CC000C2E90131CEE761B9A0EB830000F05AFF01
:102CD0000130C6D04FF00053C4E9003504F10C00B8
:102CE000C0E72646A468002CBDD10C3000F04AFF96
:102CF000431CB6D04FF00053C0E90035846056B98C
:102D000038600C30AEE7C31C9D08002605F10A0CA4
:102D100005F1030EE7E7B060F3E700BFD806002037
:102D200010B5FFF799FF044628B91722034900F0B0
:102D300075FF03F0A4F8204610BD00BF997700008E
:102D40002DE9F843C6683D4B334004460D46904696
:102D50000BB9022747E0D0F81490484603F050FB27
:102D600007460028F5D1B8F1010F2CD0B8F1020FB9
:102D70002ED0B8F1000FECD1002DEADBB00404D561
:102D80002368E26A9A4238BFE362A169A9420EDC75
:102D90002368E26A934238BF134622695818801AA2
:102DA000A84204DB206B01EB000CAC4536DC0023B1
:102DB000C4E9013346F02006A56226F4032626F076
:102DC0004006E6600FE0204600F03AF80544D3E7FD
:102DD000484603F012FBB0F1000CE26806DA42F05C
:102DE0008002E26001273846BDE8F883E36A1846AE
:102DF000A3691946236883422CBFC91809180B46DA
:102E000021699206A3EB010303D5A26A9342B8BFDE
:102E100013466345ACBFED186544ADE76D1AB107C5
:102E200044BF281AA060F10744BF9B1AEB1A15444F
:102E300048BF6360256026F02006BEE7030010004F
:102E4000C3689A0705D10E4B21221A604FF0FF305C
:102E5000704703F020021B0309D512B1806A0138C4
:102E600070470368826900691344181AF7E70AB1CA
:102E7000806A70470368826900691344181A7047B2
:102E8000DC06002010B5174A1749002003F03AF974
:102E90004FF480734FF480620021124800F052FE1C
:102EA000124A1349012003F02DF94FF480734FF4B7
:102EB000806200210D4800F045FE0E4B1B68022B7E
:102EC0000EDD0D4A0A49022003F01CF94FF480730D
:102ED0004FF4806200210848BDE8104000F032BE87
:102EE00010BD00BF20060020B17700005C06002066
:102EF000B377000080770000980600202DE9F04F9E
:102F00009FB0CDE90A23DDE9283900220546059264
:102F1000187803F1010818B905981FB0BDE8F08FC3
:102F2000252819D0059BDDE90A671946DA175C1CCC
:102F3000B1421346BB4108DAAB68013B002BAB60E2
:102F400006DB2B685A1C2A60187005944346DFE79D
:102F5000294602F0B9FFF8E7002409E02D2F04D03C
:102F6000302F0FD144F4007401E044F00104B04666
:102F7000464616F8017B2B2F12D0EFD8202F12D007
:102F8000232F13D02A2F14D000230A21A7F13002B7
:102F9000D0B209281BD801FB032316F8017BF5E703
:102FA00044F00204E3E744F00404E0E744F00804DA
:102FB000DDE7D9F8003098F80170002B09F1040220
:102FC000BCBF5B4284F0010408F10206914623EA8B
:102FD000E3732E2F0D9334D137782A2F0FD000238F
:102FE000013606930A22A7F13003D9B209290DD878
:102FF000069916F8017B02FB01330693F3E7D9F833
:1030000000307778069309F104090236069B002BFD
:1030100017DB44F010046C2F0AD137786C2F03BFF4
:10302000777844F060040236013618BF44F020047B
:103030004C2F01D0712F07D1377844F0600401364E
:103040000FE000230693E6E7682F1FD13778682F3B
:1030500003BF777844F480740236013618BF44F019
:103060008004672F6DDC652F80F2B482472F00F05B
:10307000B18216DC412F00F0A782452F00F0AA8212
:10308000002F00F03881CDF83090C4E06A2F03D1D2
:1030900044F040043778D2E77A2FFBD0742FE0D188
:1030A000F8E7612F00F0908220DC582FEBD1610609
:1030B00040F1A78109F1070929F00709D9E900AB17
:1030C00009F108030C93220640F1A4811FFA8AFA41
:1030D0004FF0000BB54BB64A14F0080F18BF1A4654
:1030E000E00601D524F40074B24BCEE1632F00F06A
:1030F0008D80642FC7D1630640F14E8209F1070924
:1031000029F00709D9E900AB09F108030C9320065F
:1031100040F14B820FFA8AFA4FEAEA7BBAF1000FCC
:103120007BF1000380F24782DAF1000AA24A6BEBDE
:103130004B0B14F0100300F0A88124F4007400235A
:10314000A3E1702F00F0978106DC6E2F00F0DB808A
:1031500000F3D581692FCDE7752F00F0F681782F28
:1031600000F05E81732F8ED109F104030C93D9F81E
:1031700000A0924BBAF1000F08BF9A46504602F0E9
:103180009CFF8346E00603D5069B9B45A8BF9B4654
:103190000D9BA3EB0B0714F00103069313D1059AC3
:1031A00014F4007F0CBF2023302390464FEAE279CD
:1031B0003C46013C40F1C580059A27EAE7731A4472
:1031C000013F0592FF1A059B002498464FEAE379D8
:1031D000AAEB030A5C45C0F2CF80059BBBF1000F50
:1031E000A8BF5B440593069B002B00F08780059BDE
:1031F0003C4698464FEAE3794FF0200A013C40F103
:10320000E680059B002FA8BFDB1939E009F1040314
:10321000D9F800700C930D9B14F0010903F1FF38ED
:1032200049D1059B14F4007F0CBF202430249A461A
:103230004FEAE37BB8F10108524623D5DDE90A01E4
:10324000531C059382424FEAE2738B4108DAAB6864
:10325000013B002BAB6030DB2B685A1C2A601F70CF
:10326000B9F1000F4AD0059B44469A464FEAE37BEA
:103270002027013C26D5059BB8F1000FA8BF434489
:1032800005933BE0DDE90A2392457BEB030308DA73
:10329000AB68013B002BAB6008DB2B685A1C2A6033
:1032A0001C701AF1010A4BF1000BC3E729462046B6
:1032B00002F00AFEF5E7059AC0E72946384602F013
:1032C00003FECDE7DDE90A2392457BEB030308DA31
:1032D000AB68013B002BAB6008DB2B685A1C2A60F3
:1032E0001F701AF1010A4BF1000BC2E7294620209A
:1032F00002F0EAFDF5E7013ECDF83090DDF83090C0
:10330000059CB04621E609F104030C936106D9F847
:10331000003005D5059A1046D117C3E90001EDE745
:10332000A20602D5059A1A60E8E7E70503D59DF8DD
:1033300014201A70E2E72406F4D5BDF814201A8090
:10334000DCE7DDE90A12884579EB020208DAAA68AF
:10335000013A002AAA6008DB2A68511C2960137010
:1033600018F1010849F1000923E718462946089396
:1033700002F0AAFD089BF3E7DDE90A23904579EB0B
:1033800003030BDAAB68013B002BAB6018DB2B6847
:103390005A1C2A600AEB080212781A7018F1010808
:1033A00004F1010449F1000914E700BFBC770000F3
:1033B000B0770000C8770000C4770000B577000040
:1033C0000AEB08032946187802F07EFDE6E7DDE9FE
:1033D0000A23904579EB030309DAAB68013B002B24
:1033E000AB6009DB2B685A1C2A6083F800A018F137
:1033F000010849F1000901E72946202002F064FD97
:10340000F5E709F104030C93D9F800304FF0000BF5
:103410009A4658E6E3057FF55DAE0AF0FF0A57E6E7
:1034200061061AD509F1070929F00709D9E900ABA6
:1034300009F108030C93220618D51FFA8AFA4FF0F7
:10344000000B7F4B7F4A14F0080F18BF1A46E006A6
:1034500001D524F400747C4B17E009F104030C93AC
:10346000D9F800304FF0000B9A46E4E7E305E8D5C1
:103470000AF0FF0AE3E709F104030C93D9F80030DE
:103480006F4A9A46704B4FF0000BDDE90A890599A7
:10349000B8EB010869EBE1790699CDE90889CDE936
:1034A00010124FF0FF32CDE912225521002216A84A
:1034B00081540132202AFAD114F4826F04BF012210
:1034C0001092672F00F3AA80652F08DA472F06D0E5
:1034D00000F39A80412F02D0452F40F0A88013AB13
:1034E000039312AB029310AB019311AB00933846D8
:1034F000234616AA14A92A9FB8470690BEE0610683
:1035000015D509F1070929F00709D9E900AB09F137
:1035100008030C93220613D51FFA8AFA4FF0000B0A
:10352000484A4A4B14F0080F18BF1A4601E609F141
:1035300004030C93D9F800304FF0000B9A46E9E7EA
:10354000E305EDD50AF0FF0AE8E7600616D509F1B4
:10355000070929F00709D9E900AB09F108030C9321
:10356000210614D51FFA8AFA4FF0000B14F010034D
:1035700002D024F400740023324A86E709F10403E0
:103580000C93D9F800304FF0000B9A46E8E7E205BB
:10359000ECD50AF0FF0AE7E709F104030C93D9F828
:1035A00000309A464FEAE37BB1E5E1057FF5B6AD21
:1035B0004FFA8AFAB0E5A20704D414F0040F214AA6
:1035C000234BB1E7234AB4E5E3065EBF0D2344F085
:1035D0001004069314F0100F09F10709069B29F057
:1035E000070908BF0623069309F108030C93D9E9DC
:1035F0000023CDE91423002344F480644FF0000A33
:103600004FF0000B1A4640E7612F3FF468AF642F7C
:1036100000F00B81582F0AD100222BE0702FFBD035
:1036200008DC692F00F001816F2F00F09B800023E0
:10363000069323E0752F00F0F880782FEBE700BFAA
:10364000BF770000B0770000D9770000C277000094
:1036500097770000C67700000AF00F0116A8595CA2
:1036600081544FEA1A1141EA0B714FEA1B108A4646
:10367000834601325AEA0B010692EDD114F48063BD
:103680000E9300F0D68000231093129B002BC4BF32
:1036900003F1FF331093139B002B03DD109A013BC2
:1036A00013441093069B109F11981F4402F005FDD0
:1036B0000D9BDF1B04F001030D9340F201231C421C
:1036C000A7EB00074FF0000800F0DC80C2464FEA8D
:1036D000E87B119B5A1C119293F80090B9F1000FEE
:1036E00040F0D7800D9B83B914F4007F0CBF2023DA
:1036F0003023C2464FEAE87B3C46013C40F1E5807E
:1037000027EAE7737A1ED71A98440E9B002B00F025
:10371000F7803024069B4B4500F307810D9B5BB17E
:10372000C2464FEAE87B3C464FF02009013C40F19D
:103730009781002FA8BFB844059B4344A0E50AF039
:10374000070216A93032CA544FEADA0242EA4B7233
:103750004FEADB0192468B4601335AEA0B0206938D
:10376000EDD18BE70023F8E74FEA9A025FEA5B01AD
:103770004FEA3A0042EA8B7210EB02084FEA9B03D1
:1037800041EB03094FEA181242EA097218EB0200F2
:103790004FEA191349EB03018946020A494642EAF6
:1037A000096280184FEA112349EB03014FEA1048E0
:1037B00048EA014818EB00024FEA114949EB0103BE
:1037C00012EB03084FF0000143EB01094FEAD80860
:1037D00048EA49781AF10602A8FB0C014FEAD90918
:1037E0004BF100030CFB0911121A63EB0103CDE945
:1037F0000623069B1809079B40EA037010EB08029A
:103800004FEA131141EB09030AF1300A02EB82017E
:10381000AAEB410A16A99B4601F807A00137924678
:103820005AEA0B0306979FD128E700274FF00A0CAE
:10383000F6E7069A109B9B1A0E9A48BF134630E78C
:10384000DDE90823904579EB030309DAAB68013B16
:10385000002BAB6011DB2B685A1C2A6083F800B088
:1038600018F1010849F10009AAEB0803002BE7DA77
:1038700027EAE778AAEB080728E72946202002F084
:1038800023FBEDE74FF0000907F1FF3A4FF0200B63
:10389000EAE7DDE9082392457BEB030308F1010821
:1038A00009DAAB68013B002BAB6009DB2B685A1CC3
:1038B0002A6083F800901AF1010A4BF1000B08E727
:1038C0002946484602F000FBF5E7DDE908128A4583
:1038D0007BEB020208DAAA68013A002AAA6008DB38
:1038E0002A68511C296013701AF1010A4BF1000B70
:1038F00003E7184629460F9302F0E6FA0F9BF3E719
:10390000C2464FEAE87B3024109B013B002B10930A
:103910006DDA069CC2464FEAE87B002C00F38280F9
:10392000069B002BA8BF9844F8E616ABC24613F8D6
:1039300009003C284FEAE87B31D03E2841D1139B57
:10394000013B002B13932FDBDDE9082392457BEB32
:10395000030308F1010808DAAB68013B002BAB60F8
:103960002ADB2B685A1C2A601C701AF1010A4BF1E1
:10397000000BE4E7DDE9082392457BEB030308F144
:10398000010808DAAB68013B002BAB600FDB2B684A
:103990005A1C2A601C701AF1010A4BF1000B129B91
:1039A000013B002B1293E5DA09F10109B2E6294641
:1039B000302002F089FAEEE72946302002F084FA3E
:1039C000D3E7DDE9082392457BEB030308F1010807
:1039D000EADAAB68013B002BAB6004DB2B685A1CB6
:1039E0002A601870E0E7294602F06EFADCE7DDE9AC
:1039F000082392457BEB030308F1010808DAAB6862
:103A0000013B002BAB6008DB2B685A1C2A601C7042
:103A10001AF1010A4BF1000B76E72946302002F03B
:103A200053FAF5E7DDE9082392457BEB03030CDA53
:103A3000AB6816AA013B2244002BAB6012F8010CC4
:103A40000ADB2B685A1C2A6018701AF1010A04F16B
:103A5000FF344BF1000B60E7294602F035FAF4E73A
:103A6000DDE9082392457BEB030309DAAB68013BF0
:103A7000002BAB6009DB2B685A1C2A6083F800908E
:103A80001AF1010A4BF1000B50E62946202002F002
:103A90001BFAF5E7F0B595B004460D461646002131
:103AA0003C2205A81F4602F0EDF90A2308936FF0A7
:103AB000004307930D4B05940024CDE901736A1E62
:103AC0002346009605A8FFF719FA079B013BA3427E
:103AD0000546079304DB059B1C70284615B0F0BD16
:103AE00005A9204602F0F0F9F7E700BFB760000033
:103AF0000FB473B506AB012153F8046B0193324642
:103B00006846FFF7C7FF041E13DD651C2846FFF754
:103B1000A3F8009068B1019B32462946FFF7BAFF2F
:103B2000074B0099186D224600F078F8009802F0D3
:103B300094FA204602B0BDE8704004B0704700BF60
:103B40002006002070B5C468A5070CD0B2F5007F30
:103B500005D0B2F5806F08D0B2F5807F03D1084D53
:103B60005E1EAE4204D9012008E000F124010123C9
:103B7000144301610160C361C460002070BD00BFD7
:103B8000FEFFFF0070B50B4D2B680BB90A4B2B6085
:103B9000C41C2E6824F003043444204600F032F89C
:103BA00010B92C60304670BD044B0C221A604FF0E7
:103BB000FF36F7E7D4060020E8060020DC060020E8
:103BC000F7B5044698B103B0BDE8F04002F004BB7D
:103BD00007FB046002F000FB002818BF4FF0FF3520
:103BE0000134019BA342F3DC284603B0F0BD034B34
:103BF000034E1B68019305463C27F2E780770000DF
:103C000020060020044B23B1984234BF002001203D
:103C100070471846704700BFE816002080B584B092
:103C200000AFF860B9607A60BB68002B02D14FF03A
:103C3000FF330EE0FB68012B05D0FB68022B02D09E
:103C40004FF0FF3305E07B681946B868FCF788FC45
:103C5000002318461037BD4680BD80B483B000AF46
:103C600078600B46FB70FB78002B08D07B68DB7814
:103C7000DBB243F00803DAB27B68DA7007E07B68F6
:103C8000DB78DBB223F00803DAB27B68DA7000BFBE
:103C90000C37BD465DF8047B704780B483B000AF3D
:103CA00078600B46FB70FB78002B08D07B68DB78D4
:103CB000DBB243F00403DAB27B68DA7007E07B68BA
:103CC000DB78DBB223F00403DAB27B68DA7000BF82
:103CD0000C37BD465DF8047B704780B586B000AFF9
:103CE000F8607A603B600B46FB72FB683B61FB7AD5
:103CF0003B7507F1100000233A687968FCF7A4FBD4
:103D0000002318461837BD4680BD80B584B000AF8B
:103D1000786039600023FB733B68002B11D07B680F
:103D2000002B0ED00123FB73FB7B002B09D001225B
:103D300039687868FCF7D0FB0346002B01D00023DC
:103D40003B603B6818461037BD4680BD80B586B0E5
:103D500000AFF860B9607A603B600523FB75002313
:103D6000BB7507F115031A460621F868FDF7CCFD6F
:103D70007B7D012B04D07B7D002B01D0FB7D44E0BB
:103D8000BB685B78032B01D10123BB75BB681B7833
:103D900003F01F03002B0BD1BB685B88012B33D1D1
:103DA000BB7D1946F86800F0A9F90346FB752BE0C6
:103DB000BB681B7803F01F03022B25D1BB685B880F
:103DC000002B21D1BB689B8803F00F03002B11D17E
:103DD000BB7D002B07D0BB689B88DBB21946F86817
:103DE00001F099FC06E0BB689B88DBB21946F868D5
:103DF00001F0A9FCBB689B88DBB2BA7D1946F86864
:103E000000F089F90346FB75FB7D18461837BD465F
:103E100080BD80B586B000AFF860B9607A603B6065
:103E20000523FB7507F116031A460621F868FDF70E
:103E30006BFDBB7D032B07D0BB7D012B04D0BB7D6D
:103E4000022B01D0FB7D26E0BB7D032B0DD0BB6890
:103E50005B88DBB2BB7507F116031A460721F868C9
:103E6000FDF7B8FD0346FB7514E000220721F86852
:103E7000FDF7B0FD0346FB75FB7D002B0AD1012346
:103E8000BB7507F116031A460621F868FDF7A2FD77
:103E90000346FB75FB7D18461837BD4680BD80B5CF
:103EA00086B000AFF860B9607A603B6007F1170335
:103EB0001A460621F868FDF727FDFB7D012B07D088
:103EC000FB7D002B04D0FB7D022B01D0052306E0F7
:103ED0007B683A68B968F868FCF78CFD03461846B9
:103EE0001837BD4680BD80B586B000AFF860B960B8
:103EF0007A603B6007F117031A460621F868FDF760
:103F000003FDFB7D012B04D0FB7D002B01D005239D
:103F10001DE00023FB7507F117031A460621F86818
:103F2000FDF758FDBB685B88002B08D10123FB75AA
:103F300007F117031A460621F868FDF74BFDBB6829
:103F40005B88DBB21946F868FCF7E2FD03461846C9
:103F50001837BD4680BD80B586B000AFF860B96047
:103F60007A603B6007F117031A460621F868FDF7EF
:103F7000CBFCFB7D002B01D005230AE0BB689B88AE
:103F8000D9B2BB685B88DBB21A46F868FCF7EEFD75
:103F9000034618461837BD4680BD80B586B000AFD1
:103FA000F860B96011461A460B46FB711346BB71A7
:103FB0000123FB750123BB75FB79052B1DD1BB6864
:103FC0001B7803F06003002B0DD0BB681B785BB23D
:103FD000002B08DBBB68DB88002B04D0BB79002BEF
:103FE00001D10023BB75BB7DDB01DBB21946F8684C
:103FF00001F091FB0346FB7524E07B6A1B68BA68FD
:10400000D288934204D9BB68DB881A467B6A1A605F
:104010003B6A1A687B6A1B680021F86801F095FA10
:104020000346FB75FB7D002B0CD1BB681B785BB294
:10403000002B07DA002300220021F86801F09EFA25
:104040000346FB75FB7D18461837BD4680BD80B51D
:1040500082B000AF0346FB7197F9073013F1800F70
:1040600001D1012305E097F907301846FCF7AEFDB2
:10407000002318460837BD4680BD80B483B000AF2A
:1040800078600B46FB70FB78002B06D07B681B68C2
:1040900043F001027B681A6005E07B681B6823F02F
:1040A00001027B681A6000BF0C37BD465DF8047BD7
:1040B000704780B582B000AF35233B713B79FB710F
:1040C00097F9073003211846FCF79EFD97F9073052
:1040D0001846FFF7BCFF00BF0837BD4680BD80B45F
:1040E00087B000AFF860B9607A600123FB75FB7D93
:1040F00018461C37BD465DF8047B704780B483B01A
:1041000000AF78600B46FB70052318460C37BD46A0
:104110005DF8047B704780B582B000AF78600B46D5
:10412000FB701346BB70BB78002B06D0FB7819469A
:10413000786801F0F0FA034605E0FB7819467868E4
:1041400001F001FB034618460837BD4680BD80B527
:1041500084B002AF78607B6803F10C027B6893F84F
:104160002D30C3F30013DBB2DB001A447B681A6204
:104170007B6800229A627B6808225A627A6892F809
:104180002D3043F0200382F82D307A6892F82D30DC
:104190006FF3C30382F82D307B681A6A08230093FB
:1041A0001346002200217868FDF7EAF800BF0837BF
:1041B000BD4680BD80B485B000AF78607B689B68E9
:1041C000FF2283F888207B689B6893F89430DAB2EA
:1041D0007B689B6842F00202D2B283F894207B682D
:1041E0009B68002283F898200023FB7359E07B68CA
:1041F0005B6823F4FF7323F00103FA7B520102F49E
:10420000F07213431A46002313607B685B6823F443
:10421000FF7323F00103FA7B520102F4F07213439F
:1042200043F008031A46002313607B685B6823F49D
:10423000FF7323F00103FA7B520102F4F07213437F
:1042400043F010031A46002313607B685B6823F475
:10425000FF7323F00103FA7B520102F4F07213435F
:1042600043F018031A4600231360FB7B5B007A6857
:104270001B0113442C3300221A60FB7B5B0043F0CC
:1042800001037A681B0113442C3300221A607B68F7
:104290009B68FA7B3032002103F82210FB7B01334C
:1042A000FB73FB7B032BA2D97B68002283F8A02041
:1042B0007B689B6893F89430DAB27B689B6822F045
:1042C0000202D2B283F894207B689B68FF2283F8B5
:1042D0008C208923BB737B689B68BA7B83F884201E
:1042E0007B68002283F8A1207B689B6893F8943058
:1042F000DAB27B689B6822F02002D2B283F8942065
:1043000000BF1437BD465DF8047B704780B584B0AC
:1043100000AF786039603B681B88FB813B689B7805
:1043200003F00F037B733B689B78DB093B737B7B5C
:104330005B00DAB23B7B1343FB723B68DB78012BFB
:1043400007D1FB89B3F5806F18D340F2FF33FB81AF
:1043500014E0FB89402B01D94023FB817B689B68DB
:104360007A7B303213F82230D9B27B689B687A7B33
:1043700041F00101C9B2303203F82210FB7A7A68A9
:104380001B01134403F1280253796FF38613537111
:10439000FB7AFA89C2F3090291B27A681B011344CD
:1043A00003F12802938861F309039380FB7A7A680A
:1043B0001B01134403F1280253796FF3C3035371B4
:1043C000FB7A7A681B01134403F1280253796FF3D7
:1043D000820353713B681A79FB7A02F00102D1B271
:1043E0007A681B01134403F12802537961F3C71360
:1043F00053717B689B687A7B303213F82230D9B2D4
:104400003B7B012B01D1042000E008207B689B68E6
:104410007A7B0143C9B2303203F822107B7B002B38
:1044200005D13B7B002B02D17868FFF790FE00237B
:1044300018461037BD4680BD80B584B000AF7860A7
:104440000B46FB70FB7803F00F03FB73FB78DB0973
:10445000BB73FB7B5B00DAB2BB7B13437B73FB78E4
:104460001946786800F061FD7B689B68FA7B303202
:10447000002103F822107B7B7A681B01134403F1AF
:10448000280293886FF3090393800023184610379E
:10449000BD4680BD80B584B000AF78600B46FB7030
:1044A000FB7803F00F03FB73FB78DB09BB73FB7B2B
:1044B0005B00DAB2BB7B13437B73FB7819467868E9
:1044C00000F033FD7B7B7A681B01134403F1280263
:1044D000537943F0040353717B7B7A681B011344C7
:1044E00028339B88C3F309039BB21A047B685B687B
:1044F00023F4FF7323F00103F97B490101F4F07108
:104500001943BB7B1B0103F0100319437B7B7868C5
:104510001B01034428335B79C3F30013DBB2DB00D8
:104520000B43194642F08C030B607B689B6893F841
:104530009430DAB27B689B6822F02002D2B283F812
:104540009420002318461037BD4680BD80B584B046
:1045500000AF78600B46FB70FB7803F00F03BB7372
:10456000FB78DB097B73BB7B5B00DAB27B7B13439D
:104570003B733B7B7A681B01134403F12802537998
:104580006FF3820353713B7B7A681B01134403F181
:10459000280253796FF3C30353710023FB7325E0A3
:1045A0003B7B7A681B01134428339B88C3F30903C0
:1045B0009BB21A047B685B6823F4FF7323F001034A
:1045C000B97B490101F4F07119437B7B1B0103F0B6
:1045D00010031943FB7BDB0003F008030B43194670
:1045E00042F008030B60FB7B0133FB73FB7B012B69
:1045F000D6D97B689B68BA7B303213F82230D9B2A7
:104600007B689B68BA7B21F00201C9B2303203F8A3
:104610002210BB7B002B04D0FB781946786800F091
:1046200084FCBB7B002B05D17B7B002B02D17868FF
:10463000FFF78DFD7B689B6893F89430DAB27B6856
:104640009B6822F02002D2B283F8942000231846FF
:104650001037BD4680BD80B592B002AF78607B68F0
:104660009B6893F8903087F83B3097F83B301B09F4
:1046700087F83A3097F83B30DB08DBB203F00103F0
:1046800087F8393097F83B309B08DBB203F0010321
:1046900087F838307B689B68082283F880207B6825
:1046A0005B6823F4FF7323F0010397F83A2052016B
:1046B00002F4F0721A4397F839301B0103F010032B
:1046C0001A4397F83830DB0003F0080313431B68E4
:1046D0007B637B685B6823F4FF7323F0010397F827
:1046E0003A20520102F4F0721A4397F839301B0154
:1046F00003F010031A4397F83830DB0003F0080387
:10470000134304331B683B637B6B1B0CC3F309032C
:10471000FB627B6B9B08DBB203F00F030D2B01D117
:10472000012300E0002387F82B3097F83A305B0034
:10473000DAB297F83930134387F82A3097F82A30DD
:104740007A681B01134428335B79C3F38013DBB20F
:10475000002B00F0238297F82B30002B04D07B68CD
:1047600097F8382083F8A32097F83930012B40F0D0
:10477000E28097F82A307A681B01134428331968BD
:1047800097F82A30FA6A0A4479681B010B442833E7
:104790001A6097F82A307A6802331B0113440433F5
:1047A0001A6897F82A3079681B010B4428331B6874
:1047B000D31AFB6197F82A307A681B011344283317
:1047C0005B79C3F3C003DAB297F82A3082F00102B2
:1047D000D1B27A681B01134403F12802537961F3C3
:1047E000C303537197F82A307A681B0113442833A6
:1047F0005B79C3F30013DAB297F82A3082F0010232
:10480000D1B27A681B01134403F12802537961F392
:1048100004135371FB69002B0DD097F82A307A6886
:104820001B01134428339B88C3F309039BB21A4628
:10483000FB6A93426ED297F82A307A681B011344C0
:1048400028331B683B6197F82A307A6802331B01D2
:1048500013441B68FB6097F82A307A681B011344E5
:1048600003F1280253796FF386135371FB6A002B0F
:1048700000F0728197F82A307A681B0113442833BC
:104880009B88C3F309039BB21A46FB6AB3FBF2F1A0
:1048900002FB01F29B1A002B40F05E8197F83A3040
:1048A000002B20D17B6893F8A330DB0008337A68B3
:1048B00013440433BB61BB69DB88194697F82A307F
:1048C0007A6802331B01134404331B68994240F297
:1048D000438197F83A10002300930023012278685F
:1048E000FCF74EFD5BE197F82A307A681B01134410
:1048F00028335B79C3F3C013DBB2002B00F02C81AB
:1049000097F83A1000230093002301227868FCF7FF
:1049100037FD44E197F83A3063F07F03D9B297F856
:104920002A307A6802331B0113441A68FB697868DD
:1049300000F0BDF933E197F83A30002B07D1FB6A5C
:10494000002B04D100233B610023FB6005E197F8B5
:104950002A307A681B01134428335B79C3F3401370
:10496000DBB2002B44D17B685B6823F4FF7323F038
:10497000010397F83A20520102F4F0721A4397F8B3
:104980002A3079681B010B4428335B79C3F3001389
:10499000DBB2DB00134304331B687B6297F82A30D9
:1049A0007A6802331B0113441A6897F82A30796831
:1049B0001B010B4428331B6813443B627A6A3B6A31
:1049C0009A4211D00023FB630AE07A6AFB6B1A4417
:1049D000396AFB6B0B4412781A70FB6B0133FB6373
:1049E000FA6BFB6A9A42F0D37B68002283F8A0201E
:1049F00097F82A307A681B0113442833196897F80E
:104A00002A30FA6A0A4479681B010B4428331A6079
:104A100097F82A307A6802331B01134404331A686A
:104A200097F82A3079681B010B4428331B68D31A86
:104A3000FB6197F83A30002B12D197F82B30002BFE
:104A40000ED07A6892F82D3043F0080382F82D30AA
:104A50007A6892F83D3043F0080382F83D3017E061
:104A600097F82A307A681B01134428335B79C3F323
:104A7000C003DAB297F82A3082F00102D1B27A6824
:104A80001B01134403F12802537961F3C3035371EB
:104A900097F82A307A681B01134428335B79C3F3F3
:104AA0000013DAB297F82A3082F00102D1B27A68A4
:104AB0001B01134403F12802537961F3041353716A
:104AC00097F82A307A6802331B01134404331B68B9
:104AD000002B10D0FB69002B0DD097F82A307A6894
:104AE0001B01134428339B88C3F309039BB21A4666
:104AF000FB6A934222D297F82A307A681B0113444A
:104B000028331B683B6197F82B30002B02D03B6B9E
:104B1000FB6007E097F82A307A6802331B011344E0
:104B20001B68FB6097F82A307A681B01134403F175
:104B3000280253796FF3861353710EE097F82A30E9
:104B40007A6802331B0113441A6897F83A10FB691C
:104B5000786800F03AF922E000BF97F82B307B75B7
:104B600097F83930DB01DAB297F83A301343DBB209
:104B70003B757B681B6807F10C021146184600F074
:104B8000E2FB7B689B6893F89430DAB27B689B68A1
:104B900022F02002D2B283F8942000E000BF403718
:104BA000BD4680BD80B586B000AF78607B680122CD
:104BB00083F8A1207B689B68012283F88020002372
:104BC000FB6010233B7500233B6100237B757B68F2
:104BD0001B6807F10C021146184600F0B4FB00BF39
:104BE0001837BD4680BD80B582B000AF786004E064
:104BF0007B689B68802283F880207B689B6893F8A1
:104C00008030DBB25BB2002BF2DB7B6893F83D3087
:104C100003F00403DBB2002B07D17B6893F82D303F
:104C200003F00403DBB2002B07D080217868FFF784
:104C30008DFC00217868FFF789FC00BF0837BD466E
:104C400080BD80B485B000AF78607B68FB607B6816
:104C5000002B01D1032324E0FB689B68FF2283F82B
:104C60008020FB689B6893F88430FB689B68002277
:104C700083F88420FB689B68002283F89820FB68F7
:104C80009B68002283F89420FB689B6893F80031AE
:104C9000DAB2FB689B6862F03F02D2B283F800216F
:104CA000002318461437BD465DF8047B704780B575
:104CB0008AB002AFF8607A603B600B46FB72FB681B
:104CC000BB61FB7A5B0003F01E0343F001037B61D1
:104CD0000123FB77BA697B691B01134428335B7995
:104CE000C3F38013DBB2002B1FD1BA697B691B01B0
:104CF0001344283300221A60BA697B6902331B010E
:104D000013447A681A60BA697B6902331B01134441
:104D100004333A681A60BA697B691B01134403F1D2
:104D20002802537943F020035371BA697B691B0150
:104D3000134428339B88C3F309039BB21A463B688C
:104D4000934209D9BA697B691B01134428339B88B4
:104D5000C3F309039BB23B60BB6993F8A130002BFE
:104D60001BD1FB7A03F00F03D9B2BA697B69023316
:104D70001B0113441B681846BA697B691B01134465
:104D800028331B6803441A463B68009313460122EC
:104D9000B869FCF7F5FA0346FB77BA697B691B0132
:104DA000134428331B68002B0AD13B68002B07D122
:104DB000FB7A03F00F03002B02D1B869FFF7C7F9A4
:104DC000FB7F18462037BD4680BD80B58AB002AF54
:104DD000F8607A603B600B46FB72FB68BB61FB7A54
:104DE0005B0003F01E037B610123FB773B68002B14
:104DF00012D1FB7A03F00F03002B0DD1BA697B6946
:104E00001B01134403F1280253796FF38613537186
:104E1000B869FFF79CF983E0BA697B691B01134409
:104E200028335B79C3F38013DBB2002B15D1BA6949
:104E30007B691B011344283300221A60BA697B691D
:104E400002331B0113447A681A60BA697B69023322
:104E50001B01134404333A681A60BA697B691B0169
:104E6000134403F12802537943F020035371BA69C4
:104E70007B691B01134428339B88C3F309039BB24E
:104E80001A463B68934209D9BA697B691B011344EE
:104E900028339B88C3F309039BB23B60BA697B69E3
:104EA0001B01134428331A687B6813447B60BB6979
:104EB000DB69002B22D0BB6993F8A030002B1DD1F9
:104EC0003B68402B1AD83B6803F00303002B04D146
:104ED0007B6803F00303002B10D0BA697B691B01C8
:104EE000134403F1280253796FF345135371BB69DF
:104EF000DB697B60BB69012283F8A020BB6993F862
:104F0000A130002B0CD1FB7A03F00F03D9B23B6820
:104F100000937B680022B869FCF732FA0346FB77FE
:104F2000FB7F18462037BD4680BD80B588B000AFF6
:104F300078600B46FB707B68FB61FB785B00DBB243
:104F400003F01E03DAB2FB78DB09DBB21343FB7616
:104F5000FB7EFA691B01134428335B79C3F380138A
:104F6000DBB2002B1FD04FF0FF333B61FB7EFA69B1
:104F700002331B0113441B68FB60FB783B75002365
:104F80007B75FB7EFA691B01134403F128025379F8
:104F90006FF386135371FB691B6807F10C0211460E
:104FA000184600F0D0F9002318462037BD4680BDD2
:104FB00080B586B000AF78607B687B617B68002B32
:104FC0002CD07B691B683B613B699B6893F8803000
:104FD000FB73FB7B03F00803002B02D03869FFF75B
:104FE0003AFBFB7B03F00103002B02D03869FFF78B
:104FF000D9FD97F90F30002B02DA3869FFF7F3FD7E
:105000003B699B6893F85C31FB73FB7B002B06D0FC
:105010003B699B68FA7B83F85C2100E000BF18378E
:10502000BD4680BD80B584B000AF786007F10C0349
:10503000184600F02EFD7B6800221A607B68002273
:1050400083F86D20FB68184600F031FD00231846F8
:105050001037BD4680BD90B589B000AFF8607A606A
:105060003B600B46FB72FB68BB610123FB77FB7A5D
:1050700003F00F03FB75FB7ADB09BB75BB69002BE3
:1050800001D103236AE0BB695B68002B63D0FB7D21
:105090005B00DAB2BB7D1343DBB21946BA690B463B
:1050A0005B000B449B00134414331B78002B01D08E
:1050B000022353E007F11003184600F0EAFCFB7DE1
:1050C0005B00DAB2BB7D1343DBB21946BA690B460B
:1050D0005B000B449B001344143301221A703B699C
:1050E000184600F0E4FC97F90B30002B0BDABB6993
:1050F0005B689C68BB691868F97A3B687A68A04766
:105100000346FB770AE0BB695B68DC68BB6918682B
:10511000F97A3B687A68A0470346FB77FB7F002B50
:105120001BD007F11003184600F0B3FCFB7D5B00B9
:10513000DAB2BB7D1343DBB21946BA690B465B009A
:105140000B449B001344143300221A703B69184629
:1051500000F0ADFC01E00623FB77FB7F1846243707
:10516000BD4690BD80B586B000AFF8600B467A6052
:10517000FB72FB683B610123FB753B69002B01D18E
:10518000032311E03B695B68002B0AD03B695B6835
:105190005B693A691068F97A7A6898470346FB7543
:1051A00001E00623FB75FB7D18461837BD4680BD20
:1051B00080B584B000AF786039607B68012283F8E5
:1051C0006F2000220E217868FFF7CCFF7B68022257
:1051D00083F86E207B68002283F86C200023FB603C
:1051E00020E07968FA6813465B0013449B000B4487
:1051F0000C3300221A607968FA6813465B00134486
:105200009B000B44103300221A607968FA68134639
:105210005B0013449B000B44143300221A70FB689C
:105220000133FB60FB68072BDBD97B689B6800229E
:105230000121786898477B68002283F86F2000235B
:1052400018461037BD4680BD90B587B000AF786076
:1052500039603B681B7A03F00F03BB753B681B7A10
:10526000DB097B750123FB753B681B7A102B06D18C
:1052700039687868FFF79CFF0346FB755EE0BB7DED
:10528000032B5AD8BB7D5B00DAB27B7D1343DBB2C4
:1052900019467A680B465B000B449B0013440C33A1
:1052A0001B68002B49D03B681B68BB603B685B6890
:1052B000FB603B685B7A3B743B685B7A002B07D0F2
:1052C0007B6800221A757B68002283F820200FE09B
:1052D000BB7D5B00DAB27B7D1343DBB219467A6893
:1052E0000B465B000B449B001344143300221A70DE
:1052F000BB7D5B00DAB27B7D1343DBB219467A6873
:105300000B465B000B449B0013440C331C68BB7DB5
:105310005B00DAB27B7D1343DBB219467A680B4639
:105320005B000B449B00134410331A6807F1080319
:1053300019467868A0470346FB7500BFFB7D1846F9
:105340001C37BD4690BD80B584B000AF7860396031
:105350007B68FB603B68BB603B68002B02D07B68CE
:10536000002B01D103230AE0FB689B68002B01D1CD
:10537000012304E0B968F868FFF766FF03461846A2
:105380001037BD4680BD80B588B000AF0346B96018
:105390007A60FB7300237B617B68002B01D10323C0
:1053A000A0E007F11402FB7B11461846FCF728FA2F
:1053B0000346FB76FB7E002B01D0FB7E92E07B69EF
:1053C000BA689A607B69FA7B83F86D207B6900225A
:1053D00083F86C207B69002283F86F200023FB6137
:1053E00020E07969FA6913465B0013449B000B4483
:1053F0000C3300221A607969FA6913465B00134482
:105400009B000B44103300221A607969FA69134635
:105410005B0013449B000B44143300221A70FB6999
:105420000133FB61FB69072BDBD97B691A1DFB7B11
:1054300011461846FCF74CFA0346FB76FB7E002B20
:1054400005D07B691846FFF7EDFDFB7E4AE07B69DE
:105450005B68002B05D17B691846FFF7E3FD062347
:1054600040E07B695B681B68002B18D07B695B6838
:105470005B68002B13D07B695B689B68002B0ED0A8
:105480007B695B68DB68002B09D07B695B681B6903
:10549000002B04D07B695B685B69002B05D17B69BD
:1054A0001846FFF7BFFD07231CE07A697B681A6086
:1054B0007B695B681B6879697A69F87B9847034662
:1054C000FB76FB7E002B08D07B69184600F01CF8A9
:1054D0007B6800221A60FB7E04E07B69022283F86D
:1054E0006E20FB7E18462037BD4680BD80B582B059
:1054F00000AF7860002200217868FFF733FE034692
:1055000018460837BD4680BD80B584B000AF7860CE
:105510007B68FB60FB68002B01D1032311E0FB6873
:105520005B68002B09D0FB685B685B68FA681268EF
:1055300010469847FB6800225A60F868FFF772FD32
:10554000002318461037BD4680BD80B584B000AF3B
:10555000F8607A603B600B46FB72FB7A03F00F0346
:10556000DBB263F07F03D9B23B687A68F868FFF773
:1055700072FD034618461037BD4680BD80B584B025
:1055800000AFF8607A603B600B46FB72FB7A03F079
:105590000F03D9B23B687A68F868FFF75CFD0346F1
:1055A00018461037BD4680BD80B586B000AFF860A4
:1055B000B9607A60FB687B617B69002B01D10323B2
:1055C0004DE0BB68002B02D07B68002B01D1042387
:1055D00045E0BB689B7803F00F03FB74BB689B78C6
:1055E000DB09BB74FB7C032B38D8FB7C5B00DAB295
:1055F000BB7C1343DBB218467B681A6879690346A3
:105600005B0003449B000B440C331A60FB7C5B0083
:10561000DAB2BB7C1343DBB218467B685A687969FF
:1056200003465B0003449B000B4410331A60FB7C71
:105630005B00DAB2BB7C1343DBB219467A690B46D6
:105640005B000B449B001344143300221A70BA68A9
:105650000221F868FFF786FD034600E004231846A0
:105660001837BD4680BD80B584B000AF78600B466A
:10567000FB707B68FB60FB7803F00F03FB72FB7829
:10568000DB09BB7201237B72FB68002B01D1032372
:105690003DE0FB1C1A4603217868FFF763FD0346D3
:1056A0007B72FB7A032B31D8FB7A5B00DAB2BB7AD0
:1056B0001343DBB21946FA680B465B000B449B00B0
:1056C00013440C3300221A60FB7A5B00DAB2BB7A17
:1056D0001343DBB21946FA680B465B000B449B0090
:1056E0001344103300221A60FB7A5B00DAB2BB7AF3
:1056F0001343DBB21946FA680B465B000B449B0070
:105700001344143300221A707B7A00E004231846F5
:105710001037BD4680BD80B582B000AF78600B46C3
:10572000FB70FB7803F00F03032B07D8FB1C1A4612
:1057300004217868FFF716FD034600E004231846AD
:105740000837BD4680BD80B582B000AF78600B469B
:10575000FB70FB7803F00F03032B07D8FB1C1A46E2
:1057600005217868FFF7FEFC034600E00423184695
:105770000837BD4680BD08B5FAF773FD08BD08B50A
:10578000FAF76FFD08BD08B5FAF76BFD08BD08B55F
:10579000FAF767FD08BD08B5FAF763FD08BD08B55F
:1057A000FAF75FFD08BD08B5FAF75BFD08BD08B55F
:1057B000FAF757FD08BD08B5FAF753FD08BD08B55F
:1057C000FAF74FFD08BD08B5FAF74BFD08BD08B55F
:1057D000FAF747FD08BD08B5FAF743FD08BD08B55F
:1057E000FAF73FFD08BD08B5FAF73BFD08BD08B55F
:1057F000FAF737FD08BD08B5FAF733FD08BD08B55F
:10580000FAF72FFD08BD08B5FAF72BFD08BD08B55E
:10581000FAF727FD08BD08B5FAF723FD08BD08B55E
:10582000FAF71FFD08BD08B5FAF71BFD08BD08B55E
:10583000FAF717FD08BD08B5FAF713FD08BD08B55E
:10584000FAF70FFD08BD08B5FCF710FC08BD08B558
:10585000FCF724FC08BD08B5FAF703FD08BD08B540
:10586000FAF7FFFC08BD08B5FAF7FBFC08BD08B560
:1058700000F028FA08BD08B5FAF7F3FC08BD08B532
:1058800000F028FA08BD08B5FAF7EBFC08BD08B52A
:1058900000F028FA08BD08B5FAF7E3FC08BD08B522
:1058A00000F028FA08BD08B5FAF7DBFC08BD08B51A
:1058B000FAF7D7FC08BD08B5FAF7D3FC08BD08B560
:1058C000FAF7CFFC08BD08B5FAF7CBFC08BD08B560
:1058D000FAF7C7FC08BD08B5FAF7C3FC08BD08B560
:1058E000FAF7BFFC08BD08B5FAF7BBFC08BD08B560
:1058F000FAF7B7FC08BD08B5FAF7B3FC08BD08B560
:10590000FAF7AFFC08BD08B5FAF7ABFC08BD08B55F
:10591000FAF7A7FC08BD08B5FAF7A3FC08BD08B55F
:10592000FAF79FFC08BD08B5FAF79BFC08BD08B55F
:10593000FAF797FC08BD08B5FAF793FC08BD08B55F
:10594000FAF78FFC08BD08B5FAF78BFC08BD08B55F
:10595000FAF787FC08BD08B5FAF783FC08BD08B55F
:10596000FAF77FFC08BD08B5FAF77BFC08BD08B55F
:10597000FAF777FC08BD08B5FCF7A8FB08BD08B529
:1059800000F0C0F908BD08B5FAF76BFC08BD08B512
:1059900000F0C0F908BD08B5FAF763FC08BD08B50A
:1059A000FAF75FFC08BD08B5FAF75BFC08BD08B55F
:1059B000FAF757FC08BD08B5FAF753FC08BD08B55F
:1059C000FAF74FFC08BD08B5FAF74BFC08BD08B55F
:1059D000FAF747FC08BD08B5FAF743FC08BD08B55F
:1059E000FAF73FFC08BD08B5FAF73BFC08BD08B55F
:1059F000FAF737FC08BD08B5FCF7B2FB08BD08B5DF
:105A0000FAF72FFC08BD08B5FAF72BFC08BD08B55E
:105A1000FAF727FC08BD08B5FAF723FC08BD80B4E7
:105A200085B000AFF860B9601346FB71FB79002BBD
:105A300005D10122BB689A40FB689A6004E001220C
:105A4000BB689A40FB685A6000BF1437BD465DF8DA
:105A5000047B704780B483B000AFEFF310833B60EA
:105A60003B687B6072B67B6818460C37BD465DF8B4
:105A7000047B704780B485B000AF78607B68FB60C2
:105A8000FB6883F3108800BF1437BD465DF8047BC4
:105A9000704780B582B000AF7860FFF7DBFF024649
:105AA0007B681A6072B600BF0837BD4680BD80B5FE
:105AB00082B000AF78607868FFF7DCFF00BF08377E
:105AC000BD4680BD80B485B000AF78607B681B0C9C
:105AD00003F1804303F58E23FB60FB6819687B6844
